:0400000007EF00F016
:0A000800758232ED0AF020EF14F0CB
:10100000003738392F3435362A3132332D23303DED
:101010002B4144432C204C43442C204C4D33352051
:10102000546573740054656D70313A200054656DD9
:0910300070323A2000256900002D
:10103A001C50800B256E1C501C242B6E1BAE28EFF7
:10104A0008F02AEF08F02BEF08F02B802B50D8B4C9
:10105A0031EF08F033EF08F046EF08F02B28D8A458
:10106A0039EF08F03BEF08F043EF08F0000E196E75
:10107A00000E1A6E000E1B6E000E1C6E1B8E4EEFBB
:10108A0008F0000E196E000E1A6E000E1B6E000E8E
:10109A001C6E2050800B251A205020242A6E1FAE69
:1010AA0059EF08F05BEF08F05CEF08F02A802A504D
:1010BA00D8B462EF08F064EF08F077EF08F02A2856
:1010CA00D8A46AEF08F06CEF08F074EF08F0000E8D
:1010DA001D6E000E1E6E000E1F6E000E206E1F8EFD
:1010EA007FEF08F0000E1D6E000E1E6E000E1F6EC2
:1010FA00000E206E2A50D8B485EF08F087EF08F06A
:10110A008FEF08F02B50D8A48DEF08F08FEF08F07E
:10111A0099EF08F0000E196E000E1A6E000E1B6E83
:10112A00000E1C6E31EF0AF01F501902F3CF30F097
:10113A00F4CF31F03050266E276A286A296A315076
:10114A002C6E2D6A2E6A2F6A1E501A02F3CF30F0C7
:10115A00F4CF31F030502626000E272228222922E9
:10116A0031502C26000E2D222E222F221D501B021A
:10117A00F3CF30F0F4CF31F030502626000E27227C
:10118A002822292231502C26000E2D222E222F22EF
:10119A0028C029F027C028F026C027F0266A1D504B
:1011AA001A02F3CF30F0F4CF31F030502626315006
:1011BA002722000E2822000E29221E501902F3CFE0
:1011CA0030F0F4CF31F03050262631502722000E6D
:1011DA002822000E292228C029F027C028F026C07C
:1011EA0027F0266A1D501902F3CF30F0F4CF31F000
:1011FA003050262631502722000E2822000E29229E
:10120A001F501A02F3CF30F0F4CF31F030502C26B1
:10121A0031502D22000E2E22000E2F221E501B02AC
:10122A00F3CF30F0F4CF31F030502C2631502D224C
:10123A00000E2E22000E2F221F501B02F3CF30F079
:10124A00F4CF31F03050216E3150226E236A246A75
:10125A0023C024F022C023F021C022F0216A2150A9
:10126A002C2622502D2223502E2224502F2226C0F3
:10127A0021F027C022F028C023F029C024F0190E3B
:10128A004CEF09F0D8902432233222322132E82E50
:10129A0047EF09F021502C2622502D2223502E22CE
:1012AA0024502F2228C029F027C028F026C027F072
:1012BA00266A2A502BC021F0226A2126000E2222F9
:1012CA00820E2124306EFF0E2220316E82EF09F049
:1012DA00D8902C362D362E362F3629AE77EF09F0D8
:1012EA0079EF09F07AEF09F02C80D8902636273664
:1012FA00283629363006D8A031062EAE87EF09F0F7
:10130A0089EF09F06DEF09F0000E2A6E29AE90EF11
:10131A0009F092EF09F0B6EF09F0FF0E2614216EDC
:10132A00FF0E2714226EFF0E2814236E7F0E291437
:10133A00246E2150221023102410D8B4A7EF09F0EC
:10134A00A9EF09F0ADEF09F0010E2A6EB6EF09F028
:10135A002CA0B2EF09F0B4EF09F0B6EF09F0A9EF4B
:10136A0009F02A50D8B4BCEF09F0BEEF09F0E2EF59
:10137A0009F0010E2C26000E2D222E222F222FA03C
:10138A00C9EF09F0CBEF09F0E2EF09F02CC021F028
:10139A002DC022F02EC023F02FC024F02434243292
:1013AA0023322232213221C02CF022C02DF023C058
:1013BA002EF024C02FF0304A312A31BEEDEF09F069
:1013CA00315008E13028D8A0EDEF09F0EFEF09F02D
:1013DA00F9EF09F0000E2C6E000E2D6E800E2E6EA7
:1013EA007F0E2F6E27EF0AF031BE06EF0AF031505A
:1013FA0006E13004D8B004EF0AF006EF0AF012EF63
:10140A000AF0000E2C6E000E2D6E000E2E6E000ECF
:10141A002F6E000E256E27EF0AF030C02BF0FF0E5C
:10142A002C16FF0E2D167F0E2E16000E2F162BA031
:10143A0021EF0AF023EF0AF024EF0AF02E8ED8905B
:10144A002B302F6E25502F122CC019F02DC01AF0F8
:10145A002EC01BF02FC01CF012000600FACF07F0B6
:10146A00FBCF08F0D9CF09F0DACF0AF0F2A840EFA3
:10147A000AF042EF0AF04BEF0AF0F2A247EF0AF045
:10148A0049EF0AF04BEF0AF0B4EC16F0F0A650EF71
:10149A000AF052EF0AF05BEF0AF0F0A057EF0AF0F9
:1014AA0059EF0AF05BEF0AF0B2EC16F0F0A860EF21
:1014BA000AF062EF0AF06BEF0AF0F0A267EF0AF0A7
:1014CA0069EF0AF06BEF0AF0B0EC16F0F2A670EFD3
:1014DA000AF072EF0AF08DEF0AF0F2A077EF0AF045
:1014EA0079EF0AF08DEF0AF081A87EEF0AF080EF1B
:1014FA000AF08DEF0AF07004D8A486EF0AF088EF9C
:10150A000AF08DEF0AF0000E706E000E9AEC16F0DB
:10151A00F2A692EF0AF094EF0AF0AFEF0AF0F2A007
:10152A0099EF0AF09BEF0AF0AFEF0AF081B8A0EF4B
:10153A000AF0A2EF0AF0AFEF0AF07050D8A4A8EFB1
:10154A000AF0AAEF0AF0AFEF0AF0010E706E010E70
:10155A009AEC16F0F2A6B4EF0AF0B6EF0AF0D1EF61
:10156A000AF0F2A0BBEF0AF0BDEF0AF0D1EF0AF0E1
:10157A0081AAC2EF0AF0C4EF0AF0D1EF0AF06F04B1
:10158A00D8A4CAEF0AF0CCEF0AF0D1EF0AF0000EA5
:10159A006F6E000E8DEC16F0F2A6D6EF0AF0D8EFB9
:1015AA000AF0F3EF0AF0F2A0DDEF0AF0DFEF0AF03B
:1015BA00F3EF0AF081BAE4EF0AF0E6EF0AF0F3EF8C
:1015CA000AF06F50D8A4ECEF0AF0EEEF0AF0F3EF4E
:1015DA000AF0010E6F6E010E8DEC16F0F2A6F8EF0E
:1015EA000AF0FAEF0AF015EF0BF0F2A0FFEF0AF09B
:1015FA0001EF0BF015EF0BF081AC06EF0BF008EFE3
:10160A000BF015EF0BF06E04D8A40EEF0BF010EFF1
:10161A000BF015EF0BF0000E6E6E000E80EC16F05C
:10162A00F2A61AEF0BF01CEF0BF037EF0BF0F2A05B
:10163A0021EF0BF023EF0BF037EF0BF081BC28EF13
:10164A000BF02AEF0BF037EF0BF06E50D8A430EF07
:10165A000BF032EF0BF037EF0BF0010E6E6E010E4E
:10166A0080EC16F0F2A63CEF0BF03EEF0BF059EFD0
:10167A000BF0F2A043EF0BF045EF0BF059EF0BF034
:10168A0081AE4AEF0BF04CEF0BF059EF0BF06D0403
:10169A00D8A452EF0BF054EF0BF059EF0BF0000EF9
:1016AA006D6E000E73EC16F0F2A65EEF0BF060EFB3
:1016BA000BF07BEF0BF0F2A065EF0BF067EF0BF08E
:1016CA007BEF0BF081BE6CEF0BF06EEF0BF07BEF54
:1016DA000BF06D50D8A474EF0BF076EF0BF07BEFA4
:1016EA000BF0010E6D6E010E73EC16F09DAC80EFDF
:1016FA000BF082EF0BF08BEF0BF09EAC87EF0BF049
:10170A0089EF0BF08BEF0BF065EC16F00AC0DAFFED
:10171A0009C0D9FF08C0FBFF07C0FAFF7592110084
:10172A00F4EC15F0DC0E286EEAEC13F05750D8A44E
:10173A00A1EF0BF0A3EF0BF0ADEF0BF0D50E126E8D
:10174A00000E136E90EC15F00001ED6FBDEF0BF07B
:10175A005704D8A4B3EF0BF0B5EF0BF0BDEF0BF0C5
:10176A00D50E126E010E136E90EC15F00001ED6F9E
:10177A00660E1D6E660E1E6E9C0E1F6E400E206E4D
:10178A0061C00BF062C00CF00D6A0E6A000E68ECC4
:10179A000DF00BC019F00CC01AF00DC01BF00EC0F2
:1017AA001CF01DEC08F019C032F01AC033F01BC04F
:1017BA0034F01CC035F079EC0FF032C03CF033C085
:1017CA003DF03CC00BF03DC00CF0000E0E6E0A0E50
:1017DA000D6EB0EC13F00BC03CF00CC03DF0660E81
:1017EA001D6E660E1E6E9C0E1F6E400E206E5FC032
:1017FA000BF060C00CF00D6A0E6A000E68EC0DF07A
:10180A000BC019F00CC01AF00DC01BF00EC01CF072
:10181A001DEC08F019C032F01AC033F01BC034F0C6
:10182A001CC035F079EC0FF032C03AF033C03BF00F
:10183A003AC00BF03BC00CF0000E0E6E0A0E0D6E95
:10184A00B0EC13F00BC03AF00CC03BF03D5009E18C
:10185A00150E3C5CD8A034EF0CF036EF0CF03CEFE0
:10186A000CF0730E136EC3EC15F040EF0CF0730E10
:10187A00136EAAEC15F03B5009E11A0E3A5CD8A097
:10188A0049EF0CF04BEF0CF051EF0CF0710E136EA8
:10189A00C3EC15F055EF0CF0710E136EAAEC15F0AF
:1018AA003CC0E2F03DC0E3F0BB0E0001E46F88ECFF
:1018BA0012F00001ED6F3AC0E2F03BC0E3F0B50E62
:1018CA00E46F88EC12F00001ED6FDC0E226E020E5E
:1018DA00236E080E246EBB0E256E266A28EC13F0C2
:1018EA000001ED6FDC0E226E030E236E080E246ECD
:1018FA00B50E256E266A28EC13F00001ED6F9BEFFA
:10190A000BF007EF00F01650D96EDA6ADFCFF6FF58
:10191A00100EF76EF86A0800F550250AD8A498EF59
:10192A000CF09AEF0CF055EF0DF01650D96EDA6AFA
:10193A00DF2A000E376E000E366E36C056F0386853
:10194A0039681650D96EDA6ADF501A6E1AC0F6FF75
:10195A00100EF76EF86A0800F550640AD8B4B8EFAA
:10196A000CF0BAEF0CF0C9EF0CF01AC0F6FF100E2B
:10197A00F76EF86A0800F550690AD8A4C7EF0CF0A8
:10198A00C9EF0CF04FEF0DF01750D96EDA6A020E5C
:10199A00DF26DF5CD96EDA6ADECF1BF0DECF1CF001
:1019AA001650D96EDA6A1A28DF6E200E1F6E1CBE18
:1019BA00E1EF0CF0E4EF0CF0010EE5EF0CF0000E95
:1019CA00196E1F061F50800FD96EDA6A1BC00BF002
:1019DA001CC00CF0000E0E6E0A0E0D6E36EC11F0E5
:1019EA000BC011F00CC012F076EC15F01150300F4C
:1019FA00DF6E1BC00BF01CC00CF0000E0E6E0A0E40
:101A0A000D6ED4EC10F00BC01BF00CC01CF01B5078
:101A1A001C10D8B413EF0DF015EF0DF01DEF0DF0FB
:101A2A001F50D8A41BEF0DF01DEF0DF0E6EF0CF0E0
:101A3A001F50D8B423EF0DF025EF0DF044EF0DF051
:101A4A001950D8B42BEF0DF02DEF0DF044EF0DF037
:101A5A001F061F50800FD96EDA6A2D0EDF6E44EF13
:101A6A000DF01F50800FD96EDA6ADF50186E1850C9
:101A7A000B6E0C6A15C00DF08EEC11F01F2A200EA9
:101A8A001F18D8A44BEF0DF04DEF0DF036EF0DF007
:101A9A0067EF0DF01650D96EDA6ADF2A67EF0DF09C
:101AAA001650D96EDA6ADFCFF6FF100EF76EF86AB3
:101ABA000800F5500B6E0C6A15C00DF08EEC11F093
:101ACA004FEF0DF01200136E1350D8B46FEF0DF0F4
:101ADA0071EF0DF093EF0DF00EBE78EF0DF076EF8B
:101AEA000DF093EF0DF00BC00FF00CC010F00DC00D
:101AFA0011F00EC012F00F1E101E111E121E0F2A18
:101B0A00000E1022112212220FC015F010C016F07A
:101B1A0011C017F012C018F09BEF0DF00BC015F0B2
:101B2A000CC016F00DC017F00EC018F00B500C10B8
:101B3A000D100E10D8A4A4EF0DF0A6EF0DF0B0EF23
:101B4A000DF0000E0B6E000E0C6E000E0D6E000EE8
:101B5A000E6E41EF0EF0960E146EBAEF0DF0142AC7
:101B6A00D8901832173216321532000E15140F6E2D
:101B7A00000E1614106E000E1714116EFE0E1814B5
:101B8A00126E0F50101011101210D8A4CFEF0DF0D2
:101B9A00D1EF0DF0B4EF0DF0DFEF0DF0142A010EC6
:101BAA001526000E162217221822D890183217323C
:101BBA0016321532000E15140F6E000E1614106E22
:101BCA00000E1714116EFF0E1814126E0F5010101B
:101BDA0011101210D8A4F4EF0DF0F6EF0DF0D3EFB8
:101BEA000DF0FEEF0DF01406D8901536163617369E
:101BFA00183617BE03EF0EF005EF0EF00DEF0EF0DC
:101C0A00020E14600BEF0EF00DEF0EF0F8EF0DF070
:101C1A0014B012EF0EF014EF0EF015EF0EF0179E3F
:101C2A00D890143214C00FF0106A116A126A0FC0E9
:101C3A0012F0116A106A0F6A0F501512105016121C
:101C4A0011501712125018121350D8B42FEF0EF069
:101C5A0031EF0EF039EF0EF00EBE38EF0EF036EF20
:101C6A000EF039EF0EF0188E15C00BF016C00CF0FE
:101C7A0017C00DF018C00EF01200000E116E0B50B6
:101C8A00D8B44AEF0EF04CEF0EF06AEF0EF00B509C
:101C9A00D96EDA6ADF30E832E832070B0C6E080ECA
:101CAA000C605AEF0EF05CEF0EF06AEF0EF00B507C
:101CBA00D96EDA6ADF50070B0C6E040E0C6468EFFB
:101CCA000EF06AEF0EF0C1EF0EF0010E116EE1EFA9
:101CDA000EF00B50D96EDA6ADF30E832E832070BC1
:101CEA000C6E010E0D6E0C2A7DEF0EF0D8900D369B
:101CFA000C2E7BEF0EF00D50FF0A0E6E0B50D96EB4
:101D0A00DA6ADF50070B020DF350630FD96EDA6AF5
:101D1A00DECF0FF0DDCF10F00FC0D9FF10C0DAFF11
:101D2A000E50DF16E1EF0EF00B50D96EDA6ADF3093
:101D3A00E832E832070B0C6E010E0D6E0C2AA8EF82
:101D4A000EF0D8900D360C2EA6EF0EF00B50D96E71
:101D5A00DA6ADF50070B020DF350630FD96EDA6AA5
:101D6A00DECF0EF0DDCF0FF00EC0D9FF0FC0DAFFC5
:101D7A000D50DF12E1EF0EF00B50D96EDA6ADFBCBC
:101D8A00C9EF0EF0CCEF0EF0010ECDEF0EF0000E03
:101D9A000C6E0D6A0D50000AD8B4D6EF0EF06AEF39
:101DAA000EF00C50000AD8B46EEF0EF0010AD8B447
:101DBA0099EF0EF06AEF0EF011501200000E126E3B
:101DCA000B50D8B4EBEF0EF0EDEF0EF00BEF0FF077
:101DDA000B50D96EDA6ADF30E832E832070B0D6E43
:101DEA00080E0D60FBEF0EF0FDEF0EF00BEF0FF09B
:101DFA000B50D96EDA6ADF50070B0D6E040E0D64B4
:101E0A0009EF0FF00BEF0FF062EF0FF0010E126EF9
:101E1A0077EF0FF00B50D96EDA6ADF30E832E8322A
:101E2A00070B0D6E010E0E6E0D2A1EEF0FF0D890E5
:101E3A000E360D2E1CEF0FF00E50FF0A0F6E0B50D0
:101E4A00D96EDA6ADF50070B020DF350CB0FD96E49
:101E5A00DA6ADECF10F0DDCF11F010C0D9FF11C061
:101E6A00DAFF0F50DF1677EF0FF00B50D96EDA6AF0
:101E7A00DF30E832E832070B0D6E010E0E6E0D2AC6
:101E8A0049EF0FF0D8900E360D2E47EF0FF00B509A
:101E9A00D96EDA6ADF50070B020DF350CB0FD96EF9
:101EAA00DA6ADECF0FF0DDCF10F00FC0D9FF10C015
:101EBA00DAFF0E50DF1277EF0FF00C500D6E0E6A3C
:101ECA000E50000AD8B46CEF0FF00BEF0FF00D5064
:101EDA00000AD8B40FEF0FF0010AD8B43AEF0FF0A6
:101EEA000BEF0FF012501200343435340001E76F53
:101EFA00E751D8A483EF0FF085EF0FF08FEF0FF0C3
:101F0A00000E326E000E336E000E346E000E356E09
:101F1A00FCEF0FF032C0E2F033C0E3F034C0E4F07B
:101F2A0035C0E5F0200E9FEF0FF0D890E533E4338B
:101F3A00E333E233E82E9AEF0FF0E251E66F348E84
:101F4A00FF0E3216FF0E3316FF0E3416000E35162C
:101F5A00960EE75FE7BFB6EF0FF0B4EF0FF0CCEFE6
:101F6A000FF0E751800A970FD8B0BEEF0FF0C0EF1D
:101F7A000FF0C2EF0FF085EF0FF0D8903532343200
:101F8A0033323232E73FC2EF0FF0E4EF0FF01F0EA9
:101F9A00E765D2EF0FF0D4EF0FF0DCEF0FF085EF2B
:101FAA000FF0D8903236333634363536E707E751F4
:101FBA00D8A4E2EF0FF0E4EF0FF0D6EF0FF0E651FE
:101FCA00D8B4EAEF0FF0ECEF0FF0F4EF0FF0351E94
:101FDA00341E331E326C000E33223422352232C0B4
:101FEA0032F033C033F034C034F035C035F012006B
:101FFA000D6E27EF10F0928068EF10F0928268EF72
:10200A0010F0928468EF10F0928668EF10F0928ACE
:10201A0068EF10F0968068EF10F0968268EF10F083
:10202A00968468EF10F0938468EF10F0938668EF57
:10203A0010F0938268EF10F0938868EF10F09380A5
:10204A0068EF10F00D500B6E0C6A0C50000AD8B4F1
:10205A0031EF10F068EF10F00B50000AD8B400EF1F
:10206A0010F0010AD8B403EF10F0030AD8B406EF4F
:10207A0010F0010AD8B409EF10F0070AD8B40CEF2F
:10208A0010F0010AD8B40FEF10F0030AD8B412EF17
:10209A0010F0010AD8B415EF10F00F0AD8B418EFEF
:1020AA0010F0010AD8B41BEF10F0030AD8B41EEFDF
:1020BA0010F0010AD8B421EF10F0070AD8B424EFBF
:1020CA0010F068EF10F012001C50D8A46FEF10F057
:1020DA0071EF10F073EF10F0D3EF10F01CC013F093
:1020EA0073EC13F01C28136E73EC13F0000E1E6EC3
:1020FA001C501E24020F136E73EC13F01E2A030EDB
:10210A001E648AEF10F08CEF10F07DEF10F0340EA1
:10211A001D6EF20EE82EFED71D2EFCD71CC019F03C
:10212A00380E1A6EB0EC14F00D0E1D6EFC0EE82E71
:10213A00FED71D2EFCD71CC019F0380E1A6EB0EC53
:10214A0014F0640EE82EFED71CC019F0380E1A6E71
:10215A00B0EC14F01CC019F0010E1A6EB0EC14F0B9
:10216A001CC019F0020E1A6EB0EC14F01CC019F063
:10217A00060E1A6EB0EC14F01CC019F00C0E1A6E92
:10218A00B0EC14F01CC019F0280E1A6EB0EC14F062
:10219A001CC019F0800E1A6EB0EC14F01200000E7A
:1021AA00106E0EBEDDEF10F0DBEF10F0E3EF10F073
:1021BA000D6C0E1ED8B00E2A010E106E0CBEEAEF80
:1021CA0010F0E8EF10F0F0EF10F00B6C0C1ED8B026
:1021DA000C2A010E101A000E126E000E116E0D500E
:1021EA000E10D8B4FBEF10F0FDEF10F025EF11F050
:1021FA00010E0F6E05EF11F0D8900D360E360F2A2C
:10220A000EAE0AEF11F00CEF11F001EF11F0D890B9
:10221A00113612360D500B5C0E500C58D8A018EF20
:10222A0011F01AEF11F01FEF11F00D500B5E0E5066
:10223A000C5A1180D8900E320D320F2E0CEF11F07D
:10224A001050D8B42BEF11F02DEF11F031EF11F03F
:10225A00116C121ED8B0122A11C00BF012C00CF069
:10226A001200000E106E0CBE3FEF11F03DEF11F0A0
:10227A0045EF11F00B6C0C1ED8B00C2A010E106E33
:10228A000EBE4CEF11F04AEF11F050EF11F00D6C49
:10229A000E1ED8B00E2A0D500E10D8B457EF11F0FA
:1022AA0059EF11F07DEF11F0010E0F6E61EF11F091
:1022BA00D8900D360E360F2A0EAE66EF11F068EF83
:1022CA0011F05DEF11F00D500B5C0E500C58D8A0B8
:1022DA0071EF11F073EF11F077EF11F00D500B5E03
:1022EA000E500C5AD8900E320D320F2E68EF11F0A4
:1022FA001050D8B483EF11F085EF11F089EF11F087
:10230A000B6C0C1ED8B00C2A0BC00BF00CC00CF0D6
:10231A0012000D50D8B494EF11F096EF11F09EEF21
:10232A0011F00D50D8A49CEF11F09EEF11F0A3EF1D
:10233A0011F00B50B6EC16F0E2EF11F00D50D96E19
:10234A00DA6A0A0ED926DE50DE10D8B4AFEF11F0E1
:10235A00B1EF11F0CAEF11F00D50D96EDA6A0A0E18
:10236A00D9260D50E16EE26A030EE126DE50E65CE4
:10237A00E650800A126EDE50800A1258D8B0C8EFB2
:10238A0011F0CAEF11F0E2EF11F00D50D96EDA6ACE
:10239A00030ED926DF500E6E0D50D96EDA6ADF5061
:1023AA000E24D96EDA6A0BC0DFFF0D50D96EDA6AD5
:1023BA00030ED926DE2A000EDD221200000E216E3F
:1023CA001C50D8A4EBEF11F0EDEF11F0F1EF11F082
:1023DA00010E216E35EF12F01E0618EF12F01CC026
:1023EA0019F01E50800F1A6EB0EC14F035EF12F08F
:1023FA001CC019F01E50C00F1A6EB0EC14F035EF65
:10240A0012F01CC019F01E50940F1A6EB0EC14F0A2
:10241A0035EF12F01CC019F01E50D40F1A6EB0EC32
:10242A0014F035EF12F01D501F6E206A2050000A7A
:10243A00D8B422EF12F035EF12F01F50010AD8B4C7
:10244A00F4EF11F0030AD8B4FDEF11F0010AD8B481
:10245A0006EF12F0070AD8B40FEF12F035EF12F0B8
:10246A00215012000E50D8A43DEF12F03FEF12F0A7
:10247A0041EF12F087EF12F0C2900E50D96EDA6A6D
:10248A00030ED926DF500F6E0F460F460F46C05077
:10249A000F18C70B0F18C06E0E50D96EDA6A040EE9
:1024AA00D926DF500F6EC0500F18F80B0F18C06EE8
:1024BA000E50D96EDA6A050ED926DF500F6E0F4616
:1024CA000F46C2500F18C30B0F18C26E0E50D96EAA
:1024DA00DA6A050ED926DF50FDEC0FF0F28EF28C87
:1024EA009D8C9E9C0E50D96EDA6ADECF54F0DDCFF9
:1024FA0055F00EC00BF032EC16F00EC00BF01FECCC
:10250A0016F0C2801200000E0001EB6F20EEE5F01B
:10251A00050EDE6AE806FDE2000EEC6FE451D8A46F
:10252A0099EF12F09BEF12F09FEF12F0010EEB6F92
:10253A00D6EF12F0E4C00BF0000E0D6E200E0C6EFA
:10254A00000E0F6E050E0E6EDCEC15F00001E45164
:10255A00D96EDA6A050ED926DF6AE50E246E350EC3
:10256A00256EE2C026F0E3C027F05CEC15F0C9EF57
:10257A0012F0EC51E50FD96EDA6AE451EC25E16EFE
:10258A00E26ADFCFE7FFEC2B0001EC51E50FD96ED1
:10259A00DA6ADF50D8A4D4EF12F0D6EF12F0BEEF09
:1025AA0012F0EB511200000E066E0150D8B4E0EFA3
:1025BA0012F0E2EF12F0EAEF12F00250D8A4E8EFBC
:1025CA0012F0EAEF12F0EEEF12F0010E066E26EFAD
:1025DA0013F00150D96EDA6A060ED926DFB2F8EF87
:1025EA0012F0FAEF12F015EF13F0C350C4CF03F054
:1025FA00046A03C004F0036A0326000E0422060ECE
:10260A00056E043404320332052E06EF13F002502D
:10261A00D96EDA6A03C0DEFF04C0DDFF26EF13F0CD
:10262A00C350C4CF03F0046A03C004F0036A03264C
:10263A00000E04220250D96EDA6A03C0DEFF04C01B
:10264A00DDFF065012002250D8A42EEF13F030EF0F
:10265A0013F034EF13F0010E276E71EF13F022C05E
:10266A001CF023C01DF024C01EF0E3EC11F0276E0D
:10267A0058EF13F022C019F025C0F6FF26C0F7FF65
:10268A00000EF86E0F0EF76403D00800F55005D05F
:10269A00F6CFE9FFF7CFEAFFEF501A6E82EC14F09B
:1026AA00276E254A262A25C0F6FF26C0F7FF000E08
:1026BA00F86E0F0EF76403D00800F55005D0F6CF78
:1026CA00E9FFF7CFEAFFEF500009D8A46FEF13F044
:1026DA0071EF13F03FEF13F0275012001350D8B4E4
:1026EA0079EF13F07BEF13F099EF13F01350D96ED3
:1026FA00DA6ADF30E832E832070B146E080E14602B
:10270A0089EF13F08BEF13F099EF13F01350D96E92
:10271A00DA6ADF50070B146E040E146497EF13F095
:10272A0099EF13F09DEF13F0010E156EAEEF13F053
:10273A0013C00BF042EC0EF0156E13C00BF01350E1
:10274A00D96EDA6A000EDFBE010E0C6EE3EC0EF0F3
:10275A00156E15501200000E106E000E0F6E0D5001
:10276A000E10D8B4BBEF13F0BDEF13F0E5EF13F082
:10277A00010E116EC5EF13F0D8900D360E36112AE0
:10278A000EAECAEF13F0CCEF13F0C1EF13F0D890EE
:10279A000F3610360D500B5C0E500C58D8A0D8EFDF
:1027AA0013F0DAEF13F0DFEF13F00D500B5E0E505B
:1027BA000C5A0F80D8900E320D32112ECCEF13F036
:1027CA000FC00BF010C00CF0120028C022F0010E4E
:1027DA00236E020E246E110E256E2550D8A4100EFB
:1027EA00266E28EC13F0060E2A6E130E296EAE0E14
:1027FA00E82EFED7292EFCD72A2EFAD728C022F097
:10280A00020E236E010E246E250E256E2550D8A4C5
:10281A00100E266E28EC13F028C022F0030E236E49
:10282A00010E246E2D0E256E2550D8A4100E266E8C
:10283A0028EC13F01200A80EF66E2C0EF76E000E9E
:10284A00F86E00EEC1F010EE21F00900F5CFEEFFB0
:10285A00E550E150FAE14E0EF66E2D0EF76E000EBF
:10286A00F86E00EE63F010EE12F00900F5CFEEFFFD
:10287A00E550E150FAE100EE80F0410EEE6AE8061A
:10288A00FDE100EE36F02D0EEE6AE806FDE17590E8
:10289A007592000195EF0BF01350D8A457EF14F07E
:1028AA0059EF14F05DEF14F0010E176E80EF14F07B
:1028BA00000E186E000E186E13501824020F0B6EBD
:1028CA0018C015F014C016F0152A6EEF14F0D8903F
:1028DA001632152E6CEF14F01650010B0C6EE3EC49
:1028EA000EF0176E182A030E18647EEF14F080EFAC
:1028FA0014F061EF14F0175012001950D8A488EFA1
:10290A0014F08AEF14F08EEF14F0010E1B6EAEEF86
:10291A0014F019C00BF0010E0C6EE3EC0EF01B6EF6
:10292A0019C013F01A380F0B146E51EC14F01B6E09
:10293A0019C013F021EC15F01B6E19C013F01AC060
:10294A0014F051EC14F01B6E19C013F021EC15F0C1
:10295A001B6E1B5012001950D8A4B6EF14F0B8EF32
:10296A0014F0BCEF14F0010E1B6EDCEF14F019C06A
:10297A000BF0000E0C6EE3EC0EF01B6E19C013F098
:10298A001A380F0B146E51EC14F01B6E19C013F0A9
:10299A0021EC15F01B6E19C013F01AC014F051EC9B
:1029AA0014F01B6E19C013F021EC15F01B6E1B50AE
:1029BA0012005750D8A4E4EF14F0E6EF14F0F0EF49
:1029CA0014F0D50E016E610E026ED8EC12F0010EF3
:1029DA00576E00EF15F05704D8A4F6EF14F0F8EF8D
:1029EA0014F000EF15F0D50E016E5F0E026ED8ECF2
:1029FA0012F0000E576E120021C023F00DEF15F0F1
:102A0A0020C015F0230E166E22C017F088EC0CF0C9
:102A1A0023C0F6FF100EF76EF86A0800F550000999
:102A2A00D8A41AEF15F01CEF15F005EF15F0000EFB
:102A3A00216E000E206E12001350D8A427EF15F055
:102A4A0029EF15F02DEF15F0010E146E3EEF15F07B
:102A5A0013280B6E010E0C6EE3EC0EF0030EE82E3B
:102A6A00FED7000013280B6E000E0C6EE3EC0EF07E
:102A7A00146E14501200000E116E0E50D8A448EFB6
:102A8A0015F04AEF15F04EEF15F0010E116E5AEFE0
:102A9A0015F00FC010F010461046C2501018C30BA4
:102AAA001018C26E0F50FDEC0FF011501200260ED6
:102ABA00286E24C029F0000E2D6E000E2C6E000E1A
:102ACA00346E000E336E290E206E25C021F0280EBA
:102ADA00226E01EC15F024502C24D96EDA6ADF6AD2
:102AEA00120012BE7BEF15F07DEF15F083EF15F0A3
:102AFA0011C011F012C012F08FEF15F011C013F0CF
:102B0A0012C014F0131E141E134A142A13C011F013
:102B1A0014C012F012001250D8A496EF15F098EFD4
:102B2A0015F09CEF15F0010E146EA8EF15F012C007
:102B3A000EF013C00FF040EC15F0146E12C00BF03B
:102B4A0043EC16F0146E145012001350D8A4B0EFD0
:102B5A0015F0B2EF15F0B4EF15F0C2EF15F013C08F
:102B6A000BF0000E0C6EE3EC0EF0146E13280B6ED5
:102B7A00000E0C6EE3EC0EF0146E12001350D8A483
:102B8A00C9EF15F0CBEF15F0CDEF15F0DBEF15F02F
:102B9A0013C00BF0010E0C6EE3EC0EF0146E13284A
:102BAA000B6E000E0C6EE3EC0EF0146E12000BC0EE
:102BBA0010F0E6EF15F01050D96EDA6A0CC0DFFF9C
:102BCA00102A0E06D8A00F060E2806E10F28D8A450
:102BDA00F1EF15F0F3EF15F0E0EF15F01200010E2A
:102BEA000001ED6FB7EC16F0D50E0E6E37EC12F051
:102BFA00DC0E1C6E69EC10F0730E166E0AEC16F001
:102C0A00710E166E0AEC16F012001650D8A410EFC8
:102C1A0016F012EF16F014EF16F01EEF16F016C0AB
:102C2A0013F073EC13F0176E1628136E73EC13F08F
:102C3A00176E12000B50D96EDA6A060ED926DFA07B
:102C4A0029EF16F02BEF16F02FEF16F0C188C18A84
:102C5A0031EF16F0C198C19A12000B50D96EDA6A98
:102C6A00060ED926DFB23CEF16F03EEF16F041EF22
:102C7A0016F0C09E42EF16F0C08E1200000E0C6EC7
:102C8A000B50D8A44BEF16F04DEF16F051EF16F09B
:102C9A00010E0C6E52EF16F0C2820C501200800F19
:102CAA00810F820F830F840F890F8A0F8B0F8C0F6E
:0F2CBA008D0FBC290005050002020A121A222AFA
:102CCA009E9C02D872EF16F00500FA6E5450FD6E03
:102CDA005550FE6EFF6AFA5012001200016EF29011
:102CEA000150D8A47BEF16F07DEF16F07FEF16F0B7
:102CFA007FEF16F01200016EF2900150D8A488EF0F
:102D0A0016F08AEF16F08CEF16F08CEF16F0120020
:102D1A00016EF2900150D8A495EF16F097EF16F0D5
:102D2A0099EF16F099EF16F01200016EF290015029
:102D3A00D8A4A2EF16F0A4EF16F0A6EF16F0A6EFAD
:102D4A0016F01200920F930F940F950F960F010130
:102D5A000101131B030BF0921200F0901200F29281
:062D6A001200120012002D
:020000040030CA
:0E000000FF02091EFF8181FF0FC00FE00F40BD
:00000001FF
